ARM GAS  C:\Users\dmarsch\AppData\Local\Temp\ccw3olZs.s 			page 1


   1              		.syntax unified
   2              		.cpu cortex-m3
   3              		.fpu softvfp
   4              		.eabi_attribute 20, 1
   5              		.eabi_attribute 21, 1
   6              		.eabi_attribute 23, 3
   7              		.eabi_attribute 24, 1
   8              		.eabi_attribute 25, 1
   9              		.eabi_attribute 26, 1
  10              		.eabi_attribute 30, 1
  11              		.eabi_attribute 34, 1
  12              		.eabi_attribute 18, 4
  13              		.thumb
  14              		.syntax unified
  15              		.file	"cyfitter_cfg.c"
  16              		.text
  17              	.Ltext0:
  18              		.cfi_sections	.debug_frame
  19              		.section	.text.CyClockStartupError,"ax",%progbits
  20              		.align	2
  21              		.thumb
  22              		.thumb_func
  23              		.type	CyClockStartupError, %function
  24              	CyClockStartupError:
  25              	.LFB3:
  26              		.file 1 "Generated_Source\\PSoC5\\cyfitter_cfg.c"
   1:Generated_Source\PSoC5/cyfitter_cfg.c **** 
   2:Generated_Source\PSoC5/cyfitter_cfg.c **** /*******************************************************************************
   3:Generated_Source\PSoC5/cyfitter_cfg.c **** * File Name: cyfitter_cfg.c
   4:Generated_Source\PSoC5/cyfitter_cfg.c **** * 
   5:Generated_Source\PSoC5/cyfitter_cfg.c **** * PSoC Creator  4.2
   6:Generated_Source\PSoC5/cyfitter_cfg.c **** *
   7:Generated_Source\PSoC5/cyfitter_cfg.c **** * Description:
   8:Generated_Source\PSoC5/cyfitter_cfg.c **** * This file contains device initialization code.
   9:Generated_Source\PSoC5/cyfitter_cfg.c **** * Except for the user defined sections in CyClockStartupError(), this file should not be modified.
  10:Generated_Source\PSoC5/cyfitter_cfg.c **** * This file is automatically generated by PSoC Creator.
  11:Generated_Source\PSoC5/cyfitter_cfg.c **** *
  12:Generated_Source\PSoC5/cyfitter_cfg.c **** ********************************************************************************
  13:Generated_Source\PSoC5/cyfitter_cfg.c **** * Copyright (c) 2007-2018 Cypress Semiconductor.  All rights reserved.
  14:Generated_Source\PSoC5/cyfitter_cfg.c **** * You may use this file only in accordance with the license, terms, conditions, 
  15:Generated_Source\PSoC5/cyfitter_cfg.c **** * disclaimers, and limitations in the end user license agreement accompanying 
  16:Generated_Source\PSoC5/cyfitter_cfg.c **** * the software package with which this file was provided.
  17:Generated_Source\PSoC5/cyfitter_cfg.c **** ********************************************************************************/
  18:Generated_Source\PSoC5/cyfitter_cfg.c **** 
  19:Generated_Source\PSoC5/cyfitter_cfg.c **** #include <string.h>
  20:Generated_Source\PSoC5/cyfitter_cfg.c **** #include "cytypes.h"
  21:Generated_Source\PSoC5/cyfitter_cfg.c **** #include "cydevice_trm.h"
  22:Generated_Source\PSoC5/cyfitter_cfg.c **** #include "cyfitter.h"
  23:Generated_Source\PSoC5/cyfitter_cfg.c **** #include "CyLib.h"
  24:Generated_Source\PSoC5/cyfitter_cfg.c **** #include "cyfitter_cfg.h"
  25:Generated_Source\PSoC5/cyfitter_cfg.c **** #include "cyapicallbacks.h"
  26:Generated_Source\PSoC5/cyfitter_cfg.c **** 
  27:Generated_Source\PSoC5/cyfitter_cfg.c **** #define CY_NEED_CYCLOCKSTARTUPERROR 1
  28:Generated_Source\PSoC5/cyfitter_cfg.c **** 
  29:Generated_Source\PSoC5/cyfitter_cfg.c **** 
  30:Generated_Source\PSoC5/cyfitter_cfg.c **** #if defined(__GNUC__) || defined(__ARMCC_VERSION)
  31:Generated_Source\PSoC5/cyfitter_cfg.c ****     #define CYPACKED 
ARM GAS  C:\Users\dmarsch\AppData\Local\Temp\ccw3olZs.s 			page 2


  32:Generated_Source\PSoC5/cyfitter_cfg.c ****     #define CYPACKED_ATTR __attribute__ ((packed))
  33:Generated_Source\PSoC5/cyfitter_cfg.c ****     #define CYALIGNED __attribute__ ((aligned))
  34:Generated_Source\PSoC5/cyfitter_cfg.c ****     #define CY_CFG_UNUSED __attribute__ ((unused))
  35:Generated_Source\PSoC5/cyfitter_cfg.c ****     #ifndef CY_CFG_SECTION
  36:Generated_Source\PSoC5/cyfitter_cfg.c ****         #define CY_CFG_SECTION __attribute__ ((section(".psocinit")))
  37:Generated_Source\PSoC5/cyfitter_cfg.c ****     #endif
  38:Generated_Source\PSoC5/cyfitter_cfg.c ****     
  39:Generated_Source\PSoC5/cyfitter_cfg.c ****     #if defined(__ARMCC_VERSION)
  40:Generated_Source\PSoC5/cyfitter_cfg.c ****         #define CY_CFG_MEMORY_BARRIER() __memory_changed()
  41:Generated_Source\PSoC5/cyfitter_cfg.c ****     #else
  42:Generated_Source\PSoC5/cyfitter_cfg.c ****         #define CY_CFG_MEMORY_BARRIER() __sync_synchronize()
  43:Generated_Source\PSoC5/cyfitter_cfg.c ****     #endif
  44:Generated_Source\PSoC5/cyfitter_cfg.c ****     
  45:Generated_Source\PSoC5/cyfitter_cfg.c **** #elif defined(__ICCARM__)
  46:Generated_Source\PSoC5/cyfitter_cfg.c ****     #include <intrinsics.h>
  47:Generated_Source\PSoC5/cyfitter_cfg.c **** 
  48:Generated_Source\PSoC5/cyfitter_cfg.c ****     #define CYPACKED __packed
  49:Generated_Source\PSoC5/cyfitter_cfg.c ****     #define CYPACKED_ATTR 
  50:Generated_Source\PSoC5/cyfitter_cfg.c ****     #define CYALIGNED _Pragma("data_alignment=4")
  51:Generated_Source\PSoC5/cyfitter_cfg.c ****     #define CY_CFG_UNUSED _Pragma("diag_suppress=Pe177")
  52:Generated_Source\PSoC5/cyfitter_cfg.c ****     #define CY_CFG_SECTION _Pragma("location=\".psocinit\"")
  53:Generated_Source\PSoC5/cyfitter_cfg.c ****     
  54:Generated_Source\PSoC5/cyfitter_cfg.c ****     #define CY_CFG_MEMORY_BARRIER() __DMB()
  55:Generated_Source\PSoC5/cyfitter_cfg.c ****     
  56:Generated_Source\PSoC5/cyfitter_cfg.c **** #else
  57:Generated_Source\PSoC5/cyfitter_cfg.c ****     #error Unsupported toolchain
  58:Generated_Source\PSoC5/cyfitter_cfg.c **** #endif
  59:Generated_Source\PSoC5/cyfitter_cfg.c **** 
  60:Generated_Source\PSoC5/cyfitter_cfg.c **** #ifndef CYCODE
  61:Generated_Source\PSoC5/cyfitter_cfg.c ****     #define CYCODE
  62:Generated_Source\PSoC5/cyfitter_cfg.c **** #endif
  63:Generated_Source\PSoC5/cyfitter_cfg.c **** #ifndef CYDATA
  64:Generated_Source\PSoC5/cyfitter_cfg.c ****     #define CYDATA
  65:Generated_Source\PSoC5/cyfitter_cfg.c **** #endif
  66:Generated_Source\PSoC5/cyfitter_cfg.c **** #ifndef CYFAR
  67:Generated_Source\PSoC5/cyfitter_cfg.c ****     #define CYFAR
  68:Generated_Source\PSoC5/cyfitter_cfg.c **** #endif
  69:Generated_Source\PSoC5/cyfitter_cfg.c **** #ifndef CYXDATA
  70:Generated_Source\PSoC5/cyfitter_cfg.c ****     #define CYXDATA
  71:Generated_Source\PSoC5/cyfitter_cfg.c **** #endif
  72:Generated_Source\PSoC5/cyfitter_cfg.c **** 
  73:Generated_Source\PSoC5/cyfitter_cfg.c **** 
  74:Generated_Source\PSoC5/cyfitter_cfg.c **** CY_CFG_UNUSED
  75:Generated_Source\PSoC5/cyfitter_cfg.c **** static void CYMEMZERO(void *s, size_t n);
  76:Generated_Source\PSoC5/cyfitter_cfg.c **** CY_CFG_UNUSED
  77:Generated_Source\PSoC5/cyfitter_cfg.c **** static void CYMEMZERO(void *s, size_t n)
  78:Generated_Source\PSoC5/cyfitter_cfg.c **** {
  79:Generated_Source\PSoC5/cyfitter_cfg.c **** 	(void)memset(s, 0, n);
  80:Generated_Source\PSoC5/cyfitter_cfg.c **** }
  81:Generated_Source\PSoC5/cyfitter_cfg.c **** CY_CFG_UNUSED
  82:Generated_Source\PSoC5/cyfitter_cfg.c **** static void CYCONFIGCPY(void *dest, const void *src, size_t n);
  83:Generated_Source\PSoC5/cyfitter_cfg.c **** CY_CFG_UNUSED
  84:Generated_Source\PSoC5/cyfitter_cfg.c **** static void CYCONFIGCPY(void *dest, const void *src, size_t n)
  85:Generated_Source\PSoC5/cyfitter_cfg.c **** {
  86:Generated_Source\PSoC5/cyfitter_cfg.c **** 	(void)memcpy(dest, src, n);
  87:Generated_Source\PSoC5/cyfitter_cfg.c **** }
  88:Generated_Source\PSoC5/cyfitter_cfg.c **** CY_CFG_UNUSED
ARM GAS  C:\Users\dmarsch\AppData\Local\Temp\ccw3olZs.s 			page 3


  89:Generated_Source\PSoC5/cyfitter_cfg.c **** static void CYCONFIGCPYCODE(void *dest, const void *src, size_t n);
  90:Generated_Source\PSoC5/cyfitter_cfg.c **** CY_CFG_UNUSED
  91:Generated_Source\PSoC5/cyfitter_cfg.c **** static void CYCONFIGCPYCODE(void *dest, const void *src, size_t n)
  92:Generated_Source\PSoC5/cyfitter_cfg.c **** {
  93:Generated_Source\PSoC5/cyfitter_cfg.c **** 	(void)memcpy(dest, src, n);
  94:Generated_Source\PSoC5/cyfitter_cfg.c **** }
  95:Generated_Source\PSoC5/cyfitter_cfg.c **** 
  96:Generated_Source\PSoC5/cyfitter_cfg.c **** 
  97:Generated_Source\PSoC5/cyfitter_cfg.c **** 
  98:Generated_Source\PSoC5/cyfitter_cfg.c **** 
  99:Generated_Source\PSoC5/cyfitter_cfg.c **** /* Clock startup error codes                                                   */
 100:Generated_Source\PSoC5/cyfitter_cfg.c **** #define CYCLOCKSTART_NO_ERROR    0u
 101:Generated_Source\PSoC5/cyfitter_cfg.c **** #define CYCLOCKSTART_XTAL_ERROR  1u
 102:Generated_Source\PSoC5/cyfitter_cfg.c **** #define CYCLOCKSTART_32KHZ_ERROR 2u
 103:Generated_Source\PSoC5/cyfitter_cfg.c **** #define CYCLOCKSTART_PLL_ERROR   3u
 104:Generated_Source\PSoC5/cyfitter_cfg.c **** #define CYCLOCKSTART_FLL_ERROR   4u
 105:Generated_Source\PSoC5/cyfitter_cfg.c **** #define CYCLOCKSTART_WCO_ERROR   5u
 106:Generated_Source\PSoC5/cyfitter_cfg.c **** 
 107:Generated_Source\PSoC5/cyfitter_cfg.c **** 
 108:Generated_Source\PSoC5/cyfitter_cfg.c **** #ifdef CY_NEED_CYCLOCKSTARTUPERROR
 109:Generated_Source\PSoC5/cyfitter_cfg.c **** /*******************************************************************************
 110:Generated_Source\PSoC5/cyfitter_cfg.c **** * Function Name: CyClockStartupError
 111:Generated_Source\PSoC5/cyfitter_cfg.c **** ********************************************************************************
 112:Generated_Source\PSoC5/cyfitter_cfg.c **** * Summary:
 113:Generated_Source\PSoC5/cyfitter_cfg.c **** *  If an error is encountered during clock configuration (crystal startup error,
 114:Generated_Source\PSoC5/cyfitter_cfg.c **** *  PLL lock error, etc.), the system will end up here.  Unless reimplemented by
 115:Generated_Source\PSoC5/cyfitter_cfg.c **** *  the customer, this function will stop in an infinite loop.
 116:Generated_Source\PSoC5/cyfitter_cfg.c **** *
 117:Generated_Source\PSoC5/cyfitter_cfg.c **** * Parameters:
 118:Generated_Source\PSoC5/cyfitter_cfg.c **** *   void
 119:Generated_Source\PSoC5/cyfitter_cfg.c **** *
 120:Generated_Source\PSoC5/cyfitter_cfg.c **** * Return:
 121:Generated_Source\PSoC5/cyfitter_cfg.c **** *   void
 122:Generated_Source\PSoC5/cyfitter_cfg.c **** *
 123:Generated_Source\PSoC5/cyfitter_cfg.c **** *******************************************************************************/
 124:Generated_Source\PSoC5/cyfitter_cfg.c **** CY_CFG_UNUSED
 125:Generated_Source\PSoC5/cyfitter_cfg.c **** static void CyClockStartupError(uint8 errorCode);
 126:Generated_Source\PSoC5/cyfitter_cfg.c **** CY_CFG_UNUSED
 127:Generated_Source\PSoC5/cyfitter_cfg.c **** static void CyClockStartupError(uint8 errorCode)
 128:Generated_Source\PSoC5/cyfitter_cfg.c **** {
  27              		.loc 1 128 0
  28              		.cfi_startproc
  29              		@ Volatile: function does not return.
  30              		@ args = 0, pretend = 0, frame = 0
  31              		@ frame_needed = 0, uses_anonymous_args = 0
  32              		@ link register save eliminated.
  33              	.LVL0:
  34              	.L2:
  35 0000 FEE7     		b	.L2
  36              		.cfi_endproc
  37              	.LFE3:
  38              		.size	CyClockStartupError, .-CyClockStartupError
  39 0002 00BF     		.section	.text.cfg_write_bytes32,"ax",%progbits
  40              		.align	2
  41              		.thumb
  42              		.thumb_func
  43              		.type	cfg_write_bytes32, %function
ARM GAS  C:\Users\dmarsch\AppData\Local\Temp\ccw3olZs.s 			page 4


  44              	cfg_write_bytes32:
  45              	.LFB4:
 129:Generated_Source\PSoC5/cyfitter_cfg.c ****     /* To remove the compiler warning if errorCode not used.                */
 130:Generated_Source\PSoC5/cyfitter_cfg.c ****     errorCode = errorCode;
 131:Generated_Source\PSoC5/cyfitter_cfg.c **** 
 132:Generated_Source\PSoC5/cyfitter_cfg.c ****     /* If we have a clock startup error (bad MHz crystal, PLL lock, etc.),  */
 133:Generated_Source\PSoC5/cyfitter_cfg.c ****     /* we will end up here to allow the customer to implement something to  */
 134:Generated_Source\PSoC5/cyfitter_cfg.c ****     /* deal with the clock condition.                                       */
 135:Generated_Source\PSoC5/cyfitter_cfg.c **** 
 136:Generated_Source\PSoC5/cyfitter_cfg.c **** #ifdef CY_CFG_CLOCK_STARTUP_ERROR_CALLBACK
 137:Generated_Source\PSoC5/cyfitter_cfg.c ****     CY_CFG_Clock_Startup_ErrorCallback();
 138:Generated_Source\PSoC5/cyfitter_cfg.c **** #else
 139:Generated_Source\PSoC5/cyfitter_cfg.c ****     /*  If not using CY_CFG_CLOCK_STARTUP_ERROR_CALLBACK, place your clock startup code here. */
 140:Generated_Source\PSoC5/cyfitter_cfg.c ****     /* `#START CyClockStartupError` */
 141:Generated_Source\PSoC5/cyfitter_cfg.c **** 
 142:Generated_Source\PSoC5/cyfitter_cfg.c **** 
 143:Generated_Source\PSoC5/cyfitter_cfg.c **** 
 144:Generated_Source\PSoC5/cyfitter_cfg.c ****     /* `#END` */
 145:Generated_Source\PSoC5/cyfitter_cfg.c **** 
 146:Generated_Source\PSoC5/cyfitter_cfg.c ****     while(1) {}
 147:Generated_Source\PSoC5/cyfitter_cfg.c **** #endif /* CY_CFG_CLOCK_STARTUP_ERROR_CALLBACK */
 148:Generated_Source\PSoC5/cyfitter_cfg.c **** }
 149:Generated_Source\PSoC5/cyfitter_cfg.c **** #endif
 150:Generated_Source\PSoC5/cyfitter_cfg.c **** 
 151:Generated_Source\PSoC5/cyfitter_cfg.c **** #define CY_CFG_BASE_ADDR_COUNT 23u
 152:Generated_Source\PSoC5/cyfitter_cfg.c **** CYPACKED typedef struct
 153:Generated_Source\PSoC5/cyfitter_cfg.c **** {
 154:Generated_Source\PSoC5/cyfitter_cfg.c **** 	uint8 offset;
 155:Generated_Source\PSoC5/cyfitter_cfg.c **** 	uint8 value;
 156:Generated_Source\PSoC5/cyfitter_cfg.c **** } CYPACKED_ATTR cy_cfg_addrvalue_t;
 157:Generated_Source\PSoC5/cyfitter_cfg.c **** 
 158:Generated_Source\PSoC5/cyfitter_cfg.c **** #define cy_cfg_addr_table ((const uint32 CYFAR *)0x48000000u)
 159:Generated_Source\PSoC5/cyfitter_cfg.c **** #define cy_cfg_data_table ((const cy_cfg_addrvalue_t CYFAR *)0x4800005Cu)
 160:Generated_Source\PSoC5/cyfitter_cfg.c **** 
 161:Generated_Source\PSoC5/cyfitter_cfg.c **** /* UDB_1_1_1_CONFIG Address: CYDEV_UCFG_B1_P3_U0_BASE Size (bytes): 128 */
 162:Generated_Source\PSoC5/cyfitter_cfg.c **** #define BS_UDB_1_1_1_CONFIG_VAL ((const uint8 CYFAR *)0x48000228u)
 163:Generated_Source\PSoC5/cyfitter_cfg.c **** 
 164:Generated_Source\PSoC5/cyfitter_cfg.c **** /* IOPINS0_0 Address: CYREG_PRT0_DM0 Size (bytes): 8 */
 165:Generated_Source\PSoC5/cyfitter_cfg.c **** #define BS_IOPINS0_0_VAL ((const uint8 CYFAR *)0x480002A8u)
 166:Generated_Source\PSoC5/cyfitter_cfg.c **** 
 167:Generated_Source\PSoC5/cyfitter_cfg.c **** /* IOPINS0_1 Address: CYREG_PRT1_DM0 Size (bytes): 8 */
 168:Generated_Source\PSoC5/cyfitter_cfg.c **** #define BS_IOPINS0_1_VAL ((const uint8 CYFAR *)0x480002B0u)
 169:Generated_Source\PSoC5/cyfitter_cfg.c **** 
 170:Generated_Source\PSoC5/cyfitter_cfg.c **** /* IOPINS0_2 Address: CYREG_PRT2_DM0 Size (bytes): 8 */
 171:Generated_Source\PSoC5/cyfitter_cfg.c **** #define BS_IOPINS0_2_VAL ((const uint8 CYFAR *)0x480002B8u)
 172:Generated_Source\PSoC5/cyfitter_cfg.c **** 
 173:Generated_Source\PSoC5/cyfitter_cfg.c **** /* IOPINS0_3 Address: CYREG_PRT3_DR Size (bytes): 10 */
 174:Generated_Source\PSoC5/cyfitter_cfg.c **** #define BS_IOPINS0_3_VAL ((const uint8 CYFAR *)0x480002C0u)
 175:Generated_Source\PSoC5/cyfitter_cfg.c **** 
 176:Generated_Source\PSoC5/cyfitter_cfg.c **** /* CYDEV_CLKDIST_ACFG0_CFG0 Address: CYREG_CLKDIST_ACFG0_CFG0 Size (bytes): 4 */
 177:Generated_Source\PSoC5/cyfitter_cfg.c **** #define BS_CYDEV_CLKDIST_ACFG0_CFG0_VAL ((const uint8 CYFAR *)0x480002CCu)
 178:Generated_Source\PSoC5/cyfitter_cfg.c **** 
 179:Generated_Source\PSoC5/cyfitter_cfg.c **** 
 180:Generated_Source\PSoC5/cyfitter_cfg.c **** /*******************************************************************************
 181:Generated_Source\PSoC5/cyfitter_cfg.c **** * Function Name: cfg_write_bytes32
 182:Generated_Source\PSoC5/cyfitter_cfg.c **** ********************************************************************************
 183:Generated_Source\PSoC5/cyfitter_cfg.c **** * Summary:
ARM GAS  C:\Users\dmarsch\AppData\Local\Temp\ccw3olZs.s 			page 5


 184:Generated_Source\PSoC5/cyfitter_cfg.c **** *  This function is used for setting up the chip configuration areas that
 185:Generated_Source\PSoC5/cyfitter_cfg.c **** *  contain relatively sparse data.
 186:Generated_Source\PSoC5/cyfitter_cfg.c **** *
 187:Generated_Source\PSoC5/cyfitter_cfg.c **** * Parameters:
 188:Generated_Source\PSoC5/cyfitter_cfg.c **** *   void
 189:Generated_Source\PSoC5/cyfitter_cfg.c **** *
 190:Generated_Source\PSoC5/cyfitter_cfg.c **** * Return:
 191:Generated_Source\PSoC5/cyfitter_cfg.c **** *   void
 192:Generated_Source\PSoC5/cyfitter_cfg.c **** *
 193:Generated_Source\PSoC5/cyfitter_cfg.c **** *******************************************************************************/
 194:Generated_Source\PSoC5/cyfitter_cfg.c **** static void cfg_write_bytes32(const uint32 addr_table[], const cy_cfg_addrvalue_t data_table[]);
 195:Generated_Source\PSoC5/cyfitter_cfg.c **** static void cfg_write_bytes32(const uint32 addr_table[], const cy_cfg_addrvalue_t data_table[])
 196:Generated_Source\PSoC5/cyfitter_cfg.c **** {
  46              		.loc 1 196 0
  47              		.cfi_startproc
  48              		@ args = 0, pretend = 0, frame = 0
  49              		@ frame_needed = 0, uses_anonymous_args = 0
  50              		@ link register save eliminated.
  51              	.LVL1:
  52              		.loc 1 196 0
  53 0000 F0B4     		push	{r4, r5, r6, r7}
  54              		.cfi_def_cfa_offset 16
  55              		.cfi_offset 4, -16
  56              		.cfi_offset 5, -12
  57              		.cfi_offset 6, -8
  58              		.cfi_offset 7, -4
  59              	.LVL2:
 197:Generated_Source\PSoC5/cyfitter_cfg.c **** 	/* For 32-bit little-endian architectures */
 198:Generated_Source\PSoC5/cyfitter_cfg.c **** 	uint32 i, j = 0u;
  60              		.loc 1 198 0
  61 0002 0022     		movs	r2, #0
 199:Generated_Source\PSoC5/cyfitter_cfg.c **** 	for (i = 0u; i < CY_CFG_BASE_ADDR_COUNT; i++)
  62              		.loc 1 199 0
  63 0004 1746     		mov	r7, r2
  64 0006 11E0     		b	.L4
  65              	.LVL3:
  66              	.L7:
  67              	.LBB2:
 200:Generated_Source\PSoC5/cyfitter_cfg.c **** 	{
 201:Generated_Source\PSoC5/cyfitter_cfg.c **** 		uint32 baseAddr = addr_table[i];
  68              		.loc 1 201 0
  69 0008 50F82760 		ldr	r6, [r0, r7, lsl #2]
  70              	.LVL4:
 202:Generated_Source\PSoC5/cyfitter_cfg.c **** 		uint8 count = (uint8)baseAddr;
  71              		.loc 1 202 0
  72 000c F3B2     		uxtb	r3, r6
  73              	.LVL5:
 203:Generated_Source\PSoC5/cyfitter_cfg.c **** 		baseAddr &= 0xFFFFFF00u;
  74              		.loc 1 203 0
  75 000e 26F0FF06 		bic	r6, r6, #255
  76              	.LVL6:
 204:Generated_Source\PSoC5/cyfitter_cfg.c **** 		while (count != 0u)
  77              		.loc 1 204 0
  78 0012 08E0     		b	.L5
  79              	.L6:
 205:Generated_Source\PSoC5/cyfitter_cfg.c **** 		{
 206:Generated_Source\PSoC5/cyfitter_cfg.c **** 			CY_SET_REG8((void *)(baseAddr + data_table[j].offset), data_table[j].value);
ARM GAS  C:\Users\dmarsch\AppData\Local\Temp\ccw3olZs.s 			page 6


  80              		.loc 1 206 0
  81 0014 01EB4205 		add	r5, r1, r2, lsl #1
  82 0018 11F81240 		ldrb	r4, [r1, r2, lsl #1]	@ zero_extendqisi2
  83 001c 6D78     		ldrb	r5, [r5, #1]	@ zero_extendqisi2
  84 001e A555     		strb	r5, [r4, r6]
 207:Generated_Source\PSoC5/cyfitter_cfg.c **** 			j++;
  85              		.loc 1 207 0
  86 0020 0132     		adds	r2, r2, #1
  87              	.LVL7:
 208:Generated_Source\PSoC5/cyfitter_cfg.c **** 			count--;
  88              		.loc 1 208 0
  89 0022 013B     		subs	r3, r3, #1
  90              	.LVL8:
  91 0024 DBB2     		uxtb	r3, r3
  92              	.LVL9:
  93              	.L5:
 204:Generated_Source\PSoC5/cyfitter_cfg.c **** 		{
  94              		.loc 1 204 0
  95 0026 002B     		cmp	r3, #0
  96 0028 F4D1     		bne	.L6
  97              	.LBE2:
 199:Generated_Source\PSoC5/cyfitter_cfg.c **** 	{
  98              		.loc 1 199 0 discriminator 2
  99 002a 0137     		adds	r7, r7, #1
 100              	.LVL10:
 101              	.L4:
 199:Generated_Source\PSoC5/cyfitter_cfg.c **** 	{
 102              		.loc 1 199 0 is_stmt 0 discriminator 1
 103 002c 162F     		cmp	r7, #22
 104 002e EBD9     		bls	.L7
 209:Generated_Source\PSoC5/cyfitter_cfg.c **** 		}
 210:Generated_Source\PSoC5/cyfitter_cfg.c **** 	}
 211:Generated_Source\PSoC5/cyfitter_cfg.c **** }
 105              		.loc 1 211 0 is_stmt 1
 106 0030 F0BC     		pop	{r4, r5, r6, r7}
 107              		.cfi_restore 7
 108              		.cfi_restore 6
 109              		.cfi_restore 5
 110              		.cfi_restore 4
 111              		.cfi_def_cfa_offset 0
 112              	.LVL11:
 113 0032 7047     		bx	lr
 114              		.cfi_endproc
 115              	.LFE4:
 116              		.size	cfg_write_bytes32, .-cfg_write_bytes32
 117              		.section	.text.AnalogSetDefault,"ax",%progbits
 118              		.align	2
 119              		.thumb
 120              		.thumb_func
 121              		.type	AnalogSetDefault, %function
 122              	AnalogSetDefault:
 123              	.LFB6:
 212:Generated_Source\PSoC5/cyfitter_cfg.c **** 
 213:Generated_Source\PSoC5/cyfitter_cfg.c **** /*******************************************************************************
 214:Generated_Source\PSoC5/cyfitter_cfg.c **** * Function Name: ClockSetup
 215:Generated_Source\PSoC5/cyfitter_cfg.c **** ********************************************************************************
 216:Generated_Source\PSoC5/cyfitter_cfg.c **** *
ARM GAS  C:\Users\dmarsch\AppData\Local\Temp\ccw3olZs.s 			page 7


 217:Generated_Source\PSoC5/cyfitter_cfg.c **** * Summary:
 218:Generated_Source\PSoC5/cyfitter_cfg.c **** *  Performs the initialization of all of the clocks in the device based on the
 219:Generated_Source\PSoC5/cyfitter_cfg.c **** *  settings in the Clock tab of the DWR.  This includes enabling the requested
 220:Generated_Source\PSoC5/cyfitter_cfg.c **** *  clocks and setting the necessary dividers to produce the desired frequency. 
 221:Generated_Source\PSoC5/cyfitter_cfg.c **** *
 222:Generated_Source\PSoC5/cyfitter_cfg.c **** * Parameters:
 223:Generated_Source\PSoC5/cyfitter_cfg.c **** *  void
 224:Generated_Source\PSoC5/cyfitter_cfg.c **** *
 225:Generated_Source\PSoC5/cyfitter_cfg.c **** * Return:
 226:Generated_Source\PSoC5/cyfitter_cfg.c **** *  void
 227:Generated_Source\PSoC5/cyfitter_cfg.c **** *
 228:Generated_Source\PSoC5/cyfitter_cfg.c **** *******************************************************************************/
 229:Generated_Source\PSoC5/cyfitter_cfg.c **** static void ClockSetup(void);
 230:Generated_Source\PSoC5/cyfitter_cfg.c **** static void ClockSetup(void)
 231:Generated_Source\PSoC5/cyfitter_cfg.c **** {
 232:Generated_Source\PSoC5/cyfitter_cfg.c **** 	uint32 timeout;
 233:Generated_Source\PSoC5/cyfitter_cfg.c **** 	uint8 pllLock;
 234:Generated_Source\PSoC5/cyfitter_cfg.c **** 
 235:Generated_Source\PSoC5/cyfitter_cfg.c **** 
 236:Generated_Source\PSoC5/cyfitter_cfg.c **** 	/* Configure Digital Clocks based on settings from Clock DWR */
 237:Generated_Source\PSoC5/cyfitter_cfg.c **** 	CY_SET_XTND_REG16((void CYFAR *)(CYREG_CLKDIST_DCFG0_CFG0), 0x0000u);
 238:Generated_Source\PSoC5/cyfitter_cfg.c **** 	CY_SET_XTND_REG8((void CYFAR *)(CYREG_CLKDIST_DCFG0_CFG0 + 0x2u), 0x50u);
 239:Generated_Source\PSoC5/cyfitter_cfg.c **** 	CY_SET_XTND_REG16((void CYFAR *)(CYREG_CLKDIST_DCFG1_CFG0), 0x0004u);
 240:Generated_Source\PSoC5/cyfitter_cfg.c **** 	CY_SET_XTND_REG8((void CYFAR *)(CYREG_CLKDIST_DCFG1_CFG0 + 0x2u), 0x18u);
 241:Generated_Source\PSoC5/cyfitter_cfg.c **** 
 242:Generated_Source\PSoC5/cyfitter_cfg.c **** 	/* Configure Analog Clocks based on settings from Clock DWR */
 243:Generated_Source\PSoC5/cyfitter_cfg.c **** 	CYCONFIGCPY((void CYFAR *)(CYREG_CLKDIST_ACFG0_CFG0), (const void CYFAR *)(BS_CYDEV_CLKDIST_ACFG0_
 244:Generated_Source\PSoC5/cyfitter_cfg.c **** 
 245:Generated_Source\PSoC5/cyfitter_cfg.c **** 	/* Configure ILO based on settings from Clock DWR */
 246:Generated_Source\PSoC5/cyfitter_cfg.c **** 	CY_SET_XTND_REG8((void CYFAR *)(CYREG_SLOWCLK_ILO_CR0), 0x02u);
 247:Generated_Source\PSoC5/cyfitter_cfg.c **** 	CY_SET_XTND_REG8((void CYFAR *)(CYREG_CLKDIST_CR), 0x08u);
 248:Generated_Source\PSoC5/cyfitter_cfg.c **** 
 249:Generated_Source\PSoC5/cyfitter_cfg.c **** 	/* Configure IMO based on settings from Clock DWR */
 250:Generated_Source\PSoC5/cyfitter_cfg.c **** 	CY_SET_XTND_REG8((void CYFAR *)(CYREG_FASTCLK_IMO_CR), 0x03u);
 251:Generated_Source\PSoC5/cyfitter_cfg.c **** 	CY_SET_XTND_REG8((void CYFAR *)(CYREG_IMO_TR1), (CY_GET_XTND_REG8((void CYFAR *)CYREG_FLSHID_CUST_
 252:Generated_Source\PSoC5/cyfitter_cfg.c **** 
 253:Generated_Source\PSoC5/cyfitter_cfg.c **** 	/* Configure PLL based on settings from Clock DWR */
 254:Generated_Source\PSoC5/cyfitter_cfg.c **** 	CY_SET_XTND_REG16((void CYFAR *)(CYREG_FASTCLK_PLL_P), 0x0008u);
 255:Generated_Source\PSoC5/cyfitter_cfg.c **** 	CY_SET_XTND_REG16((void CYFAR *)(CYREG_FASTCLK_PLL_CFG0), 0x1251u);
 256:Generated_Source\PSoC5/cyfitter_cfg.c **** 	/* Wait up to 250us for the PLL to lock */
 257:Generated_Source\PSoC5/cyfitter_cfg.c **** 	pllLock = 0u;
 258:Generated_Source\PSoC5/cyfitter_cfg.c **** 	for (timeout = 250u / 10u; (timeout > 0u) && (pllLock != 0x03u); timeout--)
 259:Generated_Source\PSoC5/cyfitter_cfg.c **** 	{ 
 260:Generated_Source\PSoC5/cyfitter_cfg.c **** 		pllLock = 0x03u & ((uint8)((uint8)pllLock << 1) | ((CY_GET_XTND_REG8((void CYFAR *)CYREG_FASTCLK_
 261:Generated_Source\PSoC5/cyfitter_cfg.c **** 		CyDelayCycles(10u * 48u); /* Delay 10us based on 48MHz clock */
 262:Generated_Source\PSoC5/cyfitter_cfg.c **** 	}
 263:Generated_Source\PSoC5/cyfitter_cfg.c **** 	/* If we ran out of time the PLL didn't lock so go to the error function */
 264:Generated_Source\PSoC5/cyfitter_cfg.c **** 	if (timeout == 0u)
 265:Generated_Source\PSoC5/cyfitter_cfg.c **** 	{
 266:Generated_Source\PSoC5/cyfitter_cfg.c **** 		CyClockStartupError(CYCLOCKSTART_PLL_ERROR);
 267:Generated_Source\PSoC5/cyfitter_cfg.c **** 	}
 268:Generated_Source\PSoC5/cyfitter_cfg.c **** 
 269:Generated_Source\PSoC5/cyfitter_cfg.c **** 	/* Configure Bus/Master Clock based on settings from Clock DWR */
 270:Generated_Source\PSoC5/cyfitter_cfg.c **** 	CY_SET_XTND_REG16((void CYFAR *)(CYREG_CLKDIST_MSTR0), 0x0100u);
 271:Generated_Source\PSoC5/cyfitter_cfg.c **** 	CY_SET_XTND_REG8((void CYFAR *)(CYREG_CLKDIST_MSTR0), 0x07u);
 272:Generated_Source\PSoC5/cyfitter_cfg.c **** 	CY_SET_XTND_REG8((void CYFAR *)(CYREG_CLKDIST_BCFG0), 0x00u);
 273:Generated_Source\PSoC5/cyfitter_cfg.c **** 	CY_SET_XTND_REG8((void CYFAR *)(CYREG_CLKDIST_BCFG2), 0x48u);
ARM GAS  C:\Users\dmarsch\AppData\Local\Temp\ccw3olZs.s 			page 8


 274:Generated_Source\PSoC5/cyfitter_cfg.c **** 	CY_SET_XTND_REG8((void CYFAR *)(CYREG_CLKDIST_MSTR0), 0x00u);
 275:Generated_Source\PSoC5/cyfitter_cfg.c **** 	CY_SET_XTND_REG8((void CYFAR *)(CYREG_CLKDIST_LD), 0x02u);
 276:Generated_Source\PSoC5/cyfitter_cfg.c **** 	CY_SET_XTND_REG8((void CYFAR *)(CYREG_CLKDIST_DLY1), 0x04u);
 277:Generated_Source\PSoC5/cyfitter_cfg.c **** 
 278:Generated_Source\PSoC5/cyfitter_cfg.c **** 	CY_SET_XTND_REG8((void CYFAR *)(CYREG_PM_ACT_CFG2), ((CY_GET_XTND_REG8((void CYFAR *)CYREG_PM_ACT_
 279:Generated_Source\PSoC5/cyfitter_cfg.c **** 	CY_SET_XTND_REG8((void CYFAR *)(CYREG_PM_ACT_CFG1), ((CY_GET_XTND_REG8((void CYFAR *)CYREG_PM_ACT_
 280:Generated_Source\PSoC5/cyfitter_cfg.c **** 	CY_SET_XTND_REG8((void CYFAR *)(CYREG_PM_ACT_CFG0), ((CY_GET_XTND_REG8((void CYFAR *)CYREG_PM_ACT_
 281:Generated_Source\PSoC5/cyfitter_cfg.c **** }
 282:Generated_Source\PSoC5/cyfitter_cfg.c **** 
 283:Generated_Source\PSoC5/cyfitter_cfg.c **** 
 284:Generated_Source\PSoC5/cyfitter_cfg.c **** /* Analog API Functions */
 285:Generated_Source\PSoC5/cyfitter_cfg.c **** 
 286:Generated_Source\PSoC5/cyfitter_cfg.c **** 
 287:Generated_Source\PSoC5/cyfitter_cfg.c **** /*******************************************************************************
 288:Generated_Source\PSoC5/cyfitter_cfg.c **** * Function Name: AnalogSetDefault
 289:Generated_Source\PSoC5/cyfitter_cfg.c **** ********************************************************************************
 290:Generated_Source\PSoC5/cyfitter_cfg.c **** *
 291:Generated_Source\PSoC5/cyfitter_cfg.c **** * Summary:
 292:Generated_Source\PSoC5/cyfitter_cfg.c **** *  Sets up the analog portions of the chip to default values based on chip
 293:Generated_Source\PSoC5/cyfitter_cfg.c **** *  configuration options from the project.
 294:Generated_Source\PSoC5/cyfitter_cfg.c **** *
 295:Generated_Source\PSoC5/cyfitter_cfg.c **** * Parameters:
 296:Generated_Source\PSoC5/cyfitter_cfg.c **** *  void
 297:Generated_Source\PSoC5/cyfitter_cfg.c **** *
 298:Generated_Source\PSoC5/cyfitter_cfg.c **** * Return:
 299:Generated_Source\PSoC5/cyfitter_cfg.c **** *  void
 300:Generated_Source\PSoC5/cyfitter_cfg.c **** *
 301:Generated_Source\PSoC5/cyfitter_cfg.c **** *******************************************************************************/
 302:Generated_Source\PSoC5/cyfitter_cfg.c **** static void AnalogSetDefault(void);
 303:Generated_Source\PSoC5/cyfitter_cfg.c **** static void AnalogSetDefault(void)
 304:Generated_Source\PSoC5/cyfitter_cfg.c **** {
 124              		.loc 1 304 0
 125              		.cfi_startproc
 126              		@ args = 0, pretend = 0, frame = 0
 127              		@ frame_needed = 0, uses_anonymous_args = 0
 128              		@ link register save eliminated.
 305:Generated_Source\PSoC5/cyfitter_cfg.c **** 	uint8 bg_xover_inl_trim = CY_GET_XTND_REG8((void CYFAR *)(CYREG_FLSHID_MFG_CFG_BG_XOVER_INL_TRIM +
 129              		.loc 1 305 0
 130 0000 0A4B     		ldr	r3, .L10
 131 0002 1B78     		ldrb	r3, [r3]	@ zero_extendqisi2
 132 0004 DBB2     		uxtb	r3, r3
 133              	.LVL12:
 306:Generated_Source\PSoC5/cyfitter_cfg.c **** 	CY_SET_XTND_REG8((void CYFAR *)(CYREG_BG_DFT0), (bg_xover_inl_trim & 0x07u));
 134              		.loc 1 306 0
 135 0006 03F00701 		and	r1, r3, #7
 136 000a 094A     		ldr	r2, .L10+4
 137 000c 1170     		strb	r1, [r2]
 307:Generated_Source\PSoC5/cyfitter_cfg.c **** 	CY_SET_XTND_REG8((void CYFAR *)(CYREG_BG_DFT1), ((bg_xover_inl_trim >> 4) & 0x0Fu));
 138              		.loc 1 307 0
 139 000e 1B09     		lsrs	r3, r3, #4
 140              	.LVL13:
 141 0010 0132     		adds	r2, r2, #1
 142 0012 1370     		strb	r3, [r2]
 308:Generated_Source\PSoC5/cyfitter_cfg.c **** 	CY_SET_XTND_REG8((void CYFAR *)CYREG_PRT0_AG, 0x02u);
 143              		.loc 1 308 0
 144 0014 0222     		movs	r2, #2
 145 0016 074B     		ldr	r3, .L10+8
ARM GAS  C:\Users\dmarsch\AppData\Local\Temp\ccw3olZs.s 			page 9


 146 0018 1A70     		strb	r2, [r3]
 309:Generated_Source\PSoC5/cyfitter_cfg.c **** 	CY_SET_XTND_REG8((void CYFAR *)CYREG_DSM0_SW0, 0x20u);
 147              		.loc 1 309 0
 148 001a 2022     		movs	r2, #32
 149 001c 03F6F313 		addw	r3, r3, #2547
 150 0020 1A70     		strb	r2, [r3]
 310:Generated_Source\PSoC5/cyfitter_cfg.c **** 	CY_SET_XTND_REG8((void CYFAR *)CYREG_PUMP_CR0, 0x44u);
 151              		.loc 1 310 0
 152 0022 4422     		movs	r2, #68
 153 0024 A3F28A23 		subw	r3, r3, #650
 154 0028 1A70     		strb	r2, [r3]
 155 002a 7047     		bx	lr
 156              	.L11:
 157              		.align	2
 158              	.L10:
 159 002c CF010049 		.word	1224737231
 160 0030 6E580040 		.word	1073764462
 161 0034 0D510040 		.word	1073762573
 162              		.cfi_endproc
 163              	.LFE6:
 164              		.size	AnalogSetDefault, .-AnalogSetDefault
 165              		.section	.text.CYMEMZERO,"ax",%progbits
 166              		.align	2
 167              		.thumb
 168              		.thumb_func
 169              		.type	CYMEMZERO, %function
 170              	CYMEMZERO:
 171              	.LFB0:
  78:Generated_Source\PSoC5/cyfitter_cfg.c **** 	(void)memset(s, 0, n);
 172              		.loc 1 78 0
 173              		.cfi_startproc
 174              		@ args = 0, pretend = 0, frame = 0
 175              		@ frame_needed = 0, uses_anonymous_args = 0
 176              	.LVL14:
 177 0000 08B5     		push	{r3, lr}
 178              		.cfi_def_cfa_offset 8
 179              		.cfi_offset 3, -8
 180              		.cfi_offset 14, -4
  79:Generated_Source\PSoC5/cyfitter_cfg.c **** }
 181              		.loc 1 79 0
 182 0002 0A46     		mov	r2, r1
 183 0004 0021     		movs	r1, #0
 184              	.LVL15:
 185 0006 FFF7FEFF 		bl	memset
 186              	.LVL16:
 187 000a 08BD     		pop	{r3, pc}
 188              		.cfi_endproc
 189              	.LFE0:
 190              		.size	CYMEMZERO, .-CYMEMZERO
 191              		.section	.text.CYCONFIGCPY,"ax",%progbits
 192              		.align	2
 193              		.thumb
 194              		.thumb_func
 195              		.type	CYCONFIGCPY, %function
 196              	CYCONFIGCPY:
 197              	.LFB1:
  85:Generated_Source\PSoC5/cyfitter_cfg.c **** 	(void)memcpy(dest, src, n);
ARM GAS  C:\Users\dmarsch\AppData\Local\Temp\ccw3olZs.s 			page 10


 198              		.loc 1 85 0
 199              		.cfi_startproc
 200              		@ args = 0, pretend = 0, frame = 0
 201              		@ frame_needed = 0, uses_anonymous_args = 0
 202              	.LVL17:
 203 0000 08B5     		push	{r3, lr}
 204              		.cfi_def_cfa_offset 8
 205              		.cfi_offset 3, -8
 206              		.cfi_offset 14, -4
  86:Generated_Source\PSoC5/cyfitter_cfg.c **** }
 207              		.loc 1 86 0
 208 0002 FFF7FEFF 		bl	memcpy
 209              	.LVL18:
 210 0006 08BD     		pop	{r3, pc}
 211              		.cfi_endproc
 212              	.LFE1:
 213              		.size	CYCONFIGCPY, .-CYCONFIGCPY
 214              		.section	.text.ClockSetup,"ax",%progbits
 215              		.align	2
 216              		.thumb
 217              		.thumb_func
 218              		.type	ClockSetup, %function
 219              	ClockSetup:
 220              	.LFB5:
 231:Generated_Source\PSoC5/cyfitter_cfg.c **** 	uint32 timeout;
 221              		.loc 1 231 0
 222              		.cfi_startproc
 223              		@ args = 0, pretend = 0, frame = 0
 224              		@ frame_needed = 0, uses_anonymous_args = 0
 225 0000 38B5     		push	{r3, r4, r5, lr}
 226              		.cfi_def_cfa_offset 16
 227              		.cfi_offset 3, -16
 228              		.cfi_offset 4, -12
 229              		.cfi_offset 5, -8
 230              		.cfi_offset 14, -4
 237:Generated_Source\PSoC5/cyfitter_cfg.c **** 	CY_SET_XTND_REG8((void CYFAR *)(CYREG_CLKDIST_DCFG0_CFG0 + 0x2u), 0x50u);
 231              		.loc 1 237 0
 232 0002 0024     		movs	r4, #0
 233 0004 2E4B     		ldr	r3, .L22
 234 0006 1C80     		strh	r4, [r3]	@ movhi
 238:Generated_Source\PSoC5/cyfitter_cfg.c **** 	CY_SET_XTND_REG16((void CYFAR *)(CYREG_CLKDIST_DCFG1_CFG0), 0x0004u);
 235              		.loc 1 238 0
 236 0008 5022     		movs	r2, #80
 237 000a 0233     		adds	r3, r3, #2
 238 000c 1A70     		strb	r2, [r3]
 239:Generated_Source\PSoC5/cyfitter_cfg.c **** 	CY_SET_XTND_REG8((void CYFAR *)(CYREG_CLKDIST_DCFG1_CFG0 + 0x2u), 0x18u);
 239              		.loc 1 239 0
 240 000e 0422     		movs	r2, #4
 241 0010 0233     		adds	r3, r3, #2
 242 0012 1A80     		strh	r2, [r3]	@ movhi
 240:Generated_Source\PSoC5/cyfitter_cfg.c **** 
 243              		.loc 1 240 0
 244 0014 1821     		movs	r1, #24
 245 0016 0233     		adds	r3, r3, #2
 246 0018 1970     		strb	r1, [r3]
 243:Generated_Source\PSoC5/cyfitter_cfg.c **** 
 247              		.loc 1 243 0
ARM GAS  C:\Users\dmarsch\AppData\Local\Temp\ccw3olZs.s 			page 11


 248 001a 2A49     		ldr	r1, .L22+4
 249 001c 2A48     		ldr	r0, .L22+8
 250 001e FFF7FEFF 		bl	CYCONFIGCPY
 251              	.LVL19:
 246:Generated_Source\PSoC5/cyfitter_cfg.c **** 	CY_SET_XTND_REG8((void CYFAR *)(CYREG_CLKDIST_CR), 0x08u);
 252              		.loc 1 246 0
 253 0022 0222     		movs	r2, #2
 254 0024 294B     		ldr	r3, .L22+12
 255 0026 1A70     		strb	r2, [r3]
 247:Generated_Source\PSoC5/cyfitter_cfg.c **** 
 256              		.loc 1 247 0
 257 0028 0822     		movs	r2, #8
 258 002a 4FF04023 		mov	r3, #1073758208
 259 002e 1A70     		strb	r2, [r3]
 250:Generated_Source\PSoC5/cyfitter_cfg.c **** 	CY_SET_XTND_REG8((void CYFAR *)(CYREG_IMO_TR1), (CY_GET_XTND_REG8((void CYFAR *)CYREG_FLSHID_CUST_
 260              		.loc 1 250 0
 261 0030 0321     		movs	r1, #3
 262 0032 03F50073 		add	r3, r3, #512
 263 0036 1970     		strb	r1, [r3]
 251:Generated_Source\PSoC5/cyfitter_cfg.c **** 
 264              		.loc 1 251 0
 265 0038 254B     		ldr	r3, .L22+16
 266 003a 1B78     		ldrb	r3, [r3]	@ zero_extendqisi2
 267 003c DBB2     		uxtb	r3, r3
 268 003e 2549     		ldr	r1, .L22+20
 269 0040 0B70     		strb	r3, [r1]
 254:Generated_Source\PSoC5/cyfitter_cfg.c **** 	CY_SET_XTND_REG16((void CYFAR *)(CYREG_FASTCLK_PLL_CFG0), 0x1251u);
 270              		.loc 1 254 0
 271 0042 254B     		ldr	r3, .L22+24
 272 0044 1A80     		strh	r2, [r3]	@ movhi
 255:Generated_Source\PSoC5/cyfitter_cfg.c **** 	/* Wait up to 250us for the PLL to lock */
 273              		.loc 1 255 0
 274 0046 41F25122 		movw	r2, #4689
 275 004a 023B     		subs	r3, r3, #2
 276 004c 1A80     		strh	r2, [r3]	@ movhi
 277              	.LVL20:
 258:Generated_Source\PSoC5/cyfitter_cfg.c **** 	{ 
 278              		.loc 1 258 0
 279 004e 1925     		movs	r5, #25
 280 0050 0CE0     		b	.L17
 281              	.LVL21:
 282              	.L19:
 260:Generated_Source\PSoC5/cyfitter_cfg.c **** 		CyDelayCycles(10u * 48u); /* Delay 10us based on 48MHz clock */
 283              		.loc 1 260 0 discriminator 4
 284 0052 224B     		ldr	r3, .L22+28
 285 0054 1B78     		ldrb	r3, [r3]	@ zero_extendqisi2
 286 0056 03F00103 		and	r3, r3, #1
 287 005a 43EA4404 		orr	r4, r3, r4, lsl #1
 288              	.LVL22:
 289 005e 04F00304 		and	r4, r4, #3
 290              	.LVL23:
 261:Generated_Source\PSoC5/cyfitter_cfg.c **** 	}
 291              		.loc 1 261 0 discriminator 4
 292 0062 4FF4F070 		mov	r0, #480
 293 0066 FFF7FEFF 		bl	CyDelayCycles
 294              	.LVL24:
 258:Generated_Source\PSoC5/cyfitter_cfg.c **** 	{ 
ARM GAS  C:\Users\dmarsch\AppData\Local\Temp\ccw3olZs.s 			page 12


 295              		.loc 1 258 0 discriminator 4
 296 006a 013D     		subs	r5, r5, #1
 297              	.LVL25:
 298              	.L17:
 258:Generated_Source\PSoC5/cyfitter_cfg.c **** 	{ 
 299              		.loc 1 258 0 is_stmt 0 discriminator 1
 300 006c 0DB1     		cbz	r5, .L18
 258:Generated_Source\PSoC5/cyfitter_cfg.c **** 	{ 
 301              		.loc 1 258 0 discriminator 3
 302 006e 032C     		cmp	r4, #3
 303 0070 EFD1     		bne	.L19
 304              	.L18:
 264:Generated_Source\PSoC5/cyfitter_cfg.c **** 	{
 305              		.loc 1 264 0 is_stmt 1
 306 0072 15B9     		cbnz	r5, .L20
 266:Generated_Source\PSoC5/cyfitter_cfg.c **** 	}
 307              		.loc 1 266 0
 308 0074 0320     		movs	r0, #3
 309 0076 FFF7FEFF 		bl	CyClockStartupError
 310              	.LVL26:
 311              	.L20:
 270:Generated_Source\PSoC5/cyfitter_cfg.c **** 	CY_SET_XTND_REG8((void CYFAR *)(CYREG_CLKDIST_MSTR0), 0x07u);
 312              		.loc 1 270 0
 313 007a 194B     		ldr	r3, .L22+32
 314 007c 4FF48072 		mov	r2, #256
 315 0080 1A80     		strh	r2, [r3]	@ movhi
 271:Generated_Source\PSoC5/cyfitter_cfg.c **** 	CY_SET_XTND_REG8((void CYFAR *)(CYREG_CLKDIST_BCFG0), 0x00u);
 316              		.loc 1 271 0
 317 0082 0722     		movs	r2, #7
 318 0084 1A70     		strb	r2, [r3]
 272:Generated_Source\PSoC5/cyfitter_cfg.c **** 	CY_SET_XTND_REG8((void CYFAR *)(CYREG_CLKDIST_BCFG2), 0x48u);
 319              		.loc 1 272 0
 320 0086 0022     		movs	r2, #0
 321 0088 1649     		ldr	r1, .L22+36
 322 008a 0A70     		strb	r2, [r1]
 273:Generated_Source\PSoC5/cyfitter_cfg.c **** 	CY_SET_XTND_REG8((void CYFAR *)(CYREG_CLKDIST_MSTR0), 0x00u);
 323              		.loc 1 273 0
 324 008c 4820     		movs	r0, #72
 325 008e 0231     		adds	r1, r1, #2
 326 0090 0870     		strb	r0, [r1]
 274:Generated_Source\PSoC5/cyfitter_cfg.c **** 	CY_SET_XTND_REG8((void CYFAR *)(CYREG_CLKDIST_LD), 0x02u);
 327              		.loc 1 274 0
 328 0092 1A70     		strb	r2, [r3]
 275:Generated_Source\PSoC5/cyfitter_cfg.c **** 	CY_SET_XTND_REG8((void CYFAR *)(CYREG_CLKDIST_DLY1), 0x04u);
 329              		.loc 1 275 0
 330 0094 0222     		movs	r2, #2
 331 0096 033B     		subs	r3, r3, #3
 332 0098 1A70     		strb	r2, [r3]
 276:Generated_Source\PSoC5/cyfitter_cfg.c **** 
 333              		.loc 1 276 0
 334 009a 0422     		movs	r2, #4
 335 009c 0A33     		adds	r3, r3, #10
 336 009e 1A70     		strb	r2, [r3]
 278:Generated_Source\PSoC5/cyfitter_cfg.c **** 	CY_SET_XTND_REG8((void CYFAR *)(CYREG_PM_ACT_CFG1), ((CY_GET_XTND_REG8((void CYFAR *)CYREG_PM_ACT_
 337              		.loc 1 278 0
 338 00a0 114A     		ldr	r2, .L22+40
 339 00a2 1378     		ldrb	r3, [r2]	@ zero_extendqisi2
ARM GAS  C:\Users\dmarsch\AppData\Local\Temp\ccw3olZs.s 			page 13


 340 00a4 43F00303 		orr	r3, r3, #3
 341 00a8 1370     		strb	r3, [r2]
 279:Generated_Source\PSoC5/cyfitter_cfg.c **** 	CY_SET_XTND_REG8((void CYFAR *)(CYREG_PM_ACT_CFG0), ((CY_GET_XTND_REG8((void CYFAR *)CYREG_PM_ACT_
 342              		.loc 1 279 0
 343 00aa 013A     		subs	r2, r2, #1
 344 00ac 1378     		ldrb	r3, [r2]	@ zero_extendqisi2
 345 00ae 43F00103 		orr	r3, r3, #1
 346 00b2 1370     		strb	r3, [r2]
 280:Generated_Source\PSoC5/cyfitter_cfg.c **** }
 347              		.loc 1 280 0
 348 00b4 013A     		subs	r2, r2, #1
 349 00b6 1378     		ldrb	r3, [r2]	@ zero_extendqisi2
 350 00b8 43F08003 		orr	r3, r3, #128
 351 00bc 1370     		strb	r3, [r2]
 352 00be 38BD     		pop	{r3, r4, r5, pc}
 353              	.LVL27:
 354              	.L23:
 355              		.align	2
 356              	.L22:
 357 00c0 80400040 		.word	1073758336
 358 00c4 CC020048 		.word	1207960268
 359 00c8 00410040 		.word	1073758464
 360 00cc 00430040 		.word	1073758976
 361 00d0 08010049 		.word	1224737032
 362 00d4 A1460040 		.word	1073759905
 363 00d8 22420040 		.word	1073758754
 364 00dc 25420040 		.word	1073758757
 365 00e0 04400040 		.word	1073758212
 366 00e4 06400040 		.word	1073758214
 367 00e8 A2430040 		.word	1073759138
 368              		.cfi_endproc
 369              	.LFE5:
 370              		.size	ClockSetup, .-ClockSetup
 371              		.section	.text.SetAnalogRoutingPumps,"ax",%progbits
 372              		.align	2
 373              		.global	SetAnalogRoutingPumps
 374              		.thumb
 375              		.thumb_func
 376              		.type	SetAnalogRoutingPumps, %function
 377              	SetAnalogRoutingPumps:
 378              	.LFB7:
 311:Generated_Source\PSoC5/cyfitter_cfg.c **** }
 312:Generated_Source\PSoC5/cyfitter_cfg.c **** 
 313:Generated_Source\PSoC5/cyfitter_cfg.c **** 
 314:Generated_Source\PSoC5/cyfitter_cfg.c **** /*******************************************************************************
 315:Generated_Source\PSoC5/cyfitter_cfg.c **** * Function Name: SetAnalogRoutingPumps
 316:Generated_Source\PSoC5/cyfitter_cfg.c **** ********************************************************************************
 317:Generated_Source\PSoC5/cyfitter_cfg.c **** *
 318:Generated_Source\PSoC5/cyfitter_cfg.c **** * Summary:
 319:Generated_Source\PSoC5/cyfitter_cfg.c **** * Enables or disables the analog pumps feeding analog routing switches.
 320:Generated_Source\PSoC5/cyfitter_cfg.c **** * Intended to be called at startup, based on the Vdda system configuration;
 321:Generated_Source\PSoC5/cyfitter_cfg.c **** * may be called during operation when the user informs us that the Vdda voltage
 322:Generated_Source\PSoC5/cyfitter_cfg.c **** * crossed the pump threshold.
 323:Generated_Source\PSoC5/cyfitter_cfg.c **** *
 324:Generated_Source\PSoC5/cyfitter_cfg.c **** * Parameters:
 325:Generated_Source\PSoC5/cyfitter_cfg.c **** *  enabled - 1 to enable the pumps, 0 to disable the pumps
 326:Generated_Source\PSoC5/cyfitter_cfg.c **** *
ARM GAS  C:\Users\dmarsch\AppData\Local\Temp\ccw3olZs.s 			page 14


 327:Generated_Source\PSoC5/cyfitter_cfg.c **** * Return:
 328:Generated_Source\PSoC5/cyfitter_cfg.c **** *  void
 329:Generated_Source\PSoC5/cyfitter_cfg.c **** *
 330:Generated_Source\PSoC5/cyfitter_cfg.c **** *******************************************************************************/
 331:Generated_Source\PSoC5/cyfitter_cfg.c **** void SetAnalogRoutingPumps(uint8 enabled)
 332:Generated_Source\PSoC5/cyfitter_cfg.c **** {
 379              		.loc 1 332 0
 380              		.cfi_startproc
 381              		@ args = 0, pretend = 0, frame = 0
 382              		@ frame_needed = 0, uses_anonymous_args = 0
 383              		@ link register save eliminated.
 384              	.LVL28:
 333:Generated_Source\PSoC5/cyfitter_cfg.c **** 	uint8 regValue = CY_GET_XTND_REG8((void CYFAR *)CYREG_PUMP_CR0);
 385              		.loc 1 333 0
 386 0000 054B     		ldr	r3, .L27
 387 0002 1B78     		ldrb	r3, [r3]	@ zero_extendqisi2
 388 0004 DBB2     		uxtb	r3, r3
 389              	.LVL29:
 334:Generated_Source\PSoC5/cyfitter_cfg.c **** 	if (enabled != 0u)
 390              		.loc 1 334 0
 391 0006 10B1     		cbz	r0, .L25
 335:Generated_Source\PSoC5/cyfitter_cfg.c **** 	{
 336:Generated_Source\PSoC5/cyfitter_cfg.c **** 		regValue |= 0x22u;
 392              		.loc 1 336 0
 393 0008 43F02203 		orr	r3, r3, #34
 394              	.LVL30:
 395 000c 01E0     		b	.L26
 396              	.L25:
 337:Generated_Source\PSoC5/cyfitter_cfg.c **** 	}
 338:Generated_Source\PSoC5/cyfitter_cfg.c **** 	else
 339:Generated_Source\PSoC5/cyfitter_cfg.c **** 	{
 340:Generated_Source\PSoC5/cyfitter_cfg.c **** 		regValue &= (uint8)~0x22u;
 397              		.loc 1 340 0
 398 000e 03F0DD03 		and	r3, r3, #221
 399              	.LVL31:
 400              	.L26:
 341:Generated_Source\PSoC5/cyfitter_cfg.c **** 	}
 342:Generated_Source\PSoC5/cyfitter_cfg.c **** 	CY_SET_XTND_REG8((void CYFAR *)CYREG_PUMP_CR0, regValue);
 401              		.loc 1 342 0
 402 0012 014A     		ldr	r2, .L27
 403 0014 1370     		strb	r3, [r2]
 404 0016 7047     		bx	lr
 405              	.L28:
 406              		.align	2
 407              	.L27:
 408 0018 76580040 		.word	1073764470
 409              		.cfi_endproc
 410              	.LFE7:
 411              		.size	SetAnalogRoutingPumps, .-SetAnalogRoutingPumps
 412              		.section	.text.ADC_AMux_Set,"ax",%progbits
 413              		.align	2
 414              		.global	ADC_AMux_Set
 415              		.thumb
 416              		.thumb_func
 417              		.type	ADC_AMux_Set, %function
 418              	ADC_AMux_Set:
 419              	.LFB8:
ARM GAS  C:\Users\dmarsch\AppData\Local\Temp\ccw3olZs.s 			page 15


 343:Generated_Source\PSoC5/cyfitter_cfg.c **** }
 344:Generated_Source\PSoC5/cyfitter_cfg.c **** 
 345:Generated_Source\PSoC5/cyfitter_cfg.c **** 
 346:Generated_Source\PSoC5/cyfitter_cfg.c **** #define CY_AMUX_UNUSED CYREG_BOOST_SR
 347:Generated_Source\PSoC5/cyfitter_cfg.c **** /* This is an implementation detail of the AMux. Code that depends on it may be
 348:Generated_Source\PSoC5/cyfitter_cfg.c ****    incompatible with other versions of PSoC Creator. */
 349:Generated_Source\PSoC5/cyfitter_cfg.c **** uint8 CYXDATA * const CYCODE ADC_AMux__addrTable[2] = {
 350:Generated_Source\PSoC5/cyfitter_cfg.c **** 	(uint8 CYXDATA *)CYREG_DSM0_SW3, 
 351:Generated_Source\PSoC5/cyfitter_cfg.c **** 	(uint8 CYXDATA *)CYREG_DSM0_SW3, 
 352:Generated_Source\PSoC5/cyfitter_cfg.c **** };
 353:Generated_Source\PSoC5/cyfitter_cfg.c **** 
 354:Generated_Source\PSoC5/cyfitter_cfg.c **** /* This is an implementation detail of the AMux. Code that depends on it may be
 355:Generated_Source\PSoC5/cyfitter_cfg.c ****    incompatible with other versions of PSoC Creator. */
 356:Generated_Source\PSoC5/cyfitter_cfg.c **** const uint8 CYCODE ADC_AMux__maskTable[2] = {
 357:Generated_Source\PSoC5/cyfitter_cfg.c **** 	0x40u, 
 358:Generated_Source\PSoC5/cyfitter_cfg.c **** 	0x20u, 
 359:Generated_Source\PSoC5/cyfitter_cfg.c **** };
 360:Generated_Source\PSoC5/cyfitter_cfg.c **** 
 361:Generated_Source\PSoC5/cyfitter_cfg.c **** /*******************************************************************************
 362:Generated_Source\PSoC5/cyfitter_cfg.c **** * Function Name: ADC_AMux_Set
 363:Generated_Source\PSoC5/cyfitter_cfg.c **** ********************************************************************************
 364:Generated_Source\PSoC5/cyfitter_cfg.c **** * Summary:
 365:Generated_Source\PSoC5/cyfitter_cfg.c **** *  This function is used to set a particular channel as active on the AMux.
 366:Generated_Source\PSoC5/cyfitter_cfg.c **** *
 367:Generated_Source\PSoC5/cyfitter_cfg.c **** * Parameters:  
 368:Generated_Source\PSoC5/cyfitter_cfg.c **** *   channel - The mux channel input to set as active
 369:Generated_Source\PSoC5/cyfitter_cfg.c **** *
 370:Generated_Source\PSoC5/cyfitter_cfg.c **** * Return:
 371:Generated_Source\PSoC5/cyfitter_cfg.c **** *   void
 372:Generated_Source\PSoC5/cyfitter_cfg.c **** *
 373:Generated_Source\PSoC5/cyfitter_cfg.c **** *******************************************************************************/
 374:Generated_Source\PSoC5/cyfitter_cfg.c **** void ADC_AMux_Set(uint8 channel)
 375:Generated_Source\PSoC5/cyfitter_cfg.c **** {
 420              		.loc 1 375 0
 421              		.cfi_startproc
 422              		@ args = 0, pretend = 0, frame = 0
 423              		@ frame_needed = 0, uses_anonymous_args = 0
 424              		@ link register save eliminated.
 425              	.LVL32:
 376:Generated_Source\PSoC5/cyfitter_cfg.c **** 	if (channel < 2)
 426              		.loc 1 376 0
 427 0000 0128     		cmp	r0, #1
 428 0002 07D8     		bhi	.L29
 377:Generated_Source\PSoC5/cyfitter_cfg.c **** 	{
 378:Generated_Source\PSoC5/cyfitter_cfg.c **** 		*ADC_AMux__addrTable[channel] |= ADC_AMux__maskTable[channel];
 429              		.loc 1 378 0
 430 0004 044B     		ldr	r3, .L31
 431 0006 53F82020 		ldr	r2, [r3, r0, lsl #2]
 432 000a 1844     		add	r0, r0, r3
 433              	.LVL33:
 434 000c 017A     		ldrb	r1, [r0, #8]	@ zero_extendqisi2
 435 000e 1378     		ldrb	r3, [r2]	@ zero_extendqisi2
 436 0010 0B43     		orrs	r3, r3, r1
 437 0012 1370     		strb	r3, [r2]
 438              	.L29:
 439 0014 7047     		bx	lr
 440              	.L32:
ARM GAS  C:\Users\dmarsch\AppData\Local\Temp\ccw3olZs.s 			page 16


 441 0016 00BF     		.align	2
 442              	.L31:
 443 0018 00000000 		.word	.LANCHOR0
 444              		.cfi_endproc
 445              	.LFE8:
 446              		.size	ADC_AMux_Set, .-ADC_AMux_Set
 447              		.section	.text.ADC_AMux_Unset,"ax",%progbits
 448              		.align	2
 449              		.global	ADC_AMux_Unset
 450              		.thumb
 451              		.thumb_func
 452              		.type	ADC_AMux_Unset, %function
 453              	ADC_AMux_Unset:
 454              	.LFB9:
 379:Generated_Source\PSoC5/cyfitter_cfg.c **** 	}
 380:Generated_Source\PSoC5/cyfitter_cfg.c **** }
 381:Generated_Source\PSoC5/cyfitter_cfg.c **** 
 382:Generated_Source\PSoC5/cyfitter_cfg.c **** /*******************************************************************************
 383:Generated_Source\PSoC5/cyfitter_cfg.c **** * Function Name: ADC_AMux_Unset
 384:Generated_Source\PSoC5/cyfitter_cfg.c **** ********************************************************************************
 385:Generated_Source\PSoC5/cyfitter_cfg.c **** * Summary:
 386:Generated_Source\PSoC5/cyfitter_cfg.c **** *  This function is used to clear a particular channel from being active on the
 387:Generated_Source\PSoC5/cyfitter_cfg.c **** *  AMux.
 388:Generated_Source\PSoC5/cyfitter_cfg.c **** *
 389:Generated_Source\PSoC5/cyfitter_cfg.c **** * Parameters:  
 390:Generated_Source\PSoC5/cyfitter_cfg.c **** *   channel - The mux channel input to mark inactive
 391:Generated_Source\PSoC5/cyfitter_cfg.c **** *
 392:Generated_Source\PSoC5/cyfitter_cfg.c **** * Return:
 393:Generated_Source\PSoC5/cyfitter_cfg.c **** *   void
 394:Generated_Source\PSoC5/cyfitter_cfg.c **** *
 395:Generated_Source\PSoC5/cyfitter_cfg.c **** *******************************************************************************/
 396:Generated_Source\PSoC5/cyfitter_cfg.c **** void ADC_AMux_Unset(uint8 channel)
 397:Generated_Source\PSoC5/cyfitter_cfg.c **** {
 455              		.loc 1 397 0
 456              		.cfi_startproc
 457              		@ args = 0, pretend = 0, frame = 0
 458              		@ frame_needed = 0, uses_anonymous_args = 0
 459              		@ link register save eliminated.
 460              	.LVL34:
 398:Generated_Source\PSoC5/cyfitter_cfg.c **** 	if (channel < 2)
 461              		.loc 1 398 0
 462 0000 0128     		cmp	r0, #1
 463 0002 08D8     		bhi	.L33
 399:Generated_Source\PSoC5/cyfitter_cfg.c **** 	{
 400:Generated_Source\PSoC5/cyfitter_cfg.c **** 		*ADC_AMux__addrTable[channel] &= (uint8)~ADC_AMux__maskTable[channel];
 464              		.loc 1 400 0
 465 0004 044B     		ldr	r3, .L35
 466 0006 53F82020 		ldr	r2, [r3, r0, lsl #2]
 467 000a 1844     		add	r0, r0, r3
 468              	.LVL35:
 469 000c 017A     		ldrb	r1, [r0, #8]	@ zero_extendqisi2
 470 000e 1378     		ldrb	r3, [r2]	@ zero_extendqisi2
 471 0010 23EA0103 		bic	r3, r3, r1
 472 0014 1370     		strb	r3, [r2]
 473              	.L33:
 474 0016 7047     		bx	lr
 475              	.L36:
ARM GAS  C:\Users\dmarsch\AppData\Local\Temp\ccw3olZs.s 			page 17


 476              		.align	2
 477              	.L35:
 478 0018 00000000 		.word	.LANCHOR0
 479              		.cfi_endproc
 480              	.LFE9:
 481              		.size	ADC_AMux_Unset, .-ADC_AMux_Unset
 482              		.section	.text.cyfitter_cfg,"ax",%progbits
 483              		.align	2
 484              		.global	cyfitter_cfg
 485              		.thumb
 486              		.thumb_func
 487              		.type	cyfitter_cfg, %function
 488              	cyfitter_cfg:
 489              	.LFB10:
 401:Generated_Source\PSoC5/cyfitter_cfg.c **** 	}
 402:Generated_Source\PSoC5/cyfitter_cfg.c **** }
 403:Generated_Source\PSoC5/cyfitter_cfg.c **** 
 404:Generated_Source\PSoC5/cyfitter_cfg.c **** 
 405:Generated_Source\PSoC5/cyfitter_cfg.c **** 
 406:Generated_Source\PSoC5/cyfitter_cfg.c **** /*******************************************************************************
 407:Generated_Source\PSoC5/cyfitter_cfg.c **** * Function Name: cyfitter_cfg
 408:Generated_Source\PSoC5/cyfitter_cfg.c **** ********************************************************************************
 409:Generated_Source\PSoC5/cyfitter_cfg.c **** * Summary:
 410:Generated_Source\PSoC5/cyfitter_cfg.c **** *  This function is called by the start-up code for the selected device. It
 411:Generated_Source\PSoC5/cyfitter_cfg.c **** *  performs all of the necessary device configuration based on the design
 412:Generated_Source\PSoC5/cyfitter_cfg.c **** *  settings.  This includes settings from the Design Wide Resources (DWR) such
 413:Generated_Source\PSoC5/cyfitter_cfg.c **** *  as Clocks and Pins as well as any component configuration that is necessary.
 414:Generated_Source\PSoC5/cyfitter_cfg.c **** *
 415:Generated_Source\PSoC5/cyfitter_cfg.c **** * Parameters:
 416:Generated_Source\PSoC5/cyfitter_cfg.c **** *   void
 417:Generated_Source\PSoC5/cyfitter_cfg.c **** *
 418:Generated_Source\PSoC5/cyfitter_cfg.c **** * Return:
 419:Generated_Source\PSoC5/cyfitter_cfg.c **** *   void
 420:Generated_Source\PSoC5/cyfitter_cfg.c **** *
 421:Generated_Source\PSoC5/cyfitter_cfg.c **** *******************************************************************************/
 422:Generated_Source\PSoC5/cyfitter_cfg.c **** 
 423:Generated_Source\PSoC5/cyfitter_cfg.c **** void cyfitter_cfg(void)
 424:Generated_Source\PSoC5/cyfitter_cfg.c **** {
 490              		.loc 1 424 0
 491              		.cfi_startproc
 492              		@ args = 0, pretend = 0, frame = 0
 493              		@ frame_needed = 0, uses_anonymous_args = 0
 494 0000 38B5     		push	{r3, r4, r5, lr}
 495              		.cfi_def_cfa_offset 16
 496              		.cfi_offset 3, -16
 497              		.cfi_offset 4, -12
 498              		.cfi_offset 5, -8
 499              		.cfi_offset 14, -4
 425:Generated_Source\PSoC5/cyfitter_cfg.c **** #ifdef CYGlobalIntDisable
 426:Generated_Source\PSoC5/cyfitter_cfg.c **** 	/* Disable interrupts by default. Let user enable if/when they want. */
 427:Generated_Source\PSoC5/cyfitter_cfg.c **** 	CYGlobalIntDisable
 500              		.loc 1 427 0
 501              		.syntax unified
 502              	@ 427 "Generated_Source\PSoC5\cyfitter_cfg.c" 1
 503 0002 72B6     		CPSID   i
 504              	@ 0 "" 2
 428:Generated_Source\PSoC5/cyfitter_cfg.c **** #endif
ARM GAS  C:\Users\dmarsch\AppData\Local\Temp\ccw3olZs.s 			page 18


 429:Generated_Source\PSoC5/cyfitter_cfg.c **** 
 430:Generated_Source\PSoC5/cyfitter_cfg.c **** 	/* Enable/Disable Debug functionality based on settings from System DWR */
 431:Generated_Source\PSoC5/cyfitter_cfg.c **** 	CY_SET_XTND_REG8((void CYFAR *)CYREG_MLOGIC_DEBUG, (CY_GET_XTND_REG8((void CYFAR *)CYREG_MLOGIC_DE
 505              		.loc 1 431 0
 506              		.thumb
 507              		.syntax unified
 508 0004 364A     		ldr	r2, .L43
 509 0006 1378     		ldrb	r3, [r2]	@ zero_extendqisi2
 510 0008 43F00403 		orr	r3, r3, #4
 511 000c 1370     		strb	r3, [r2]
 512              	.LVL36:
 513              	.LBB3:
 432:Generated_Source\PSoC5/cyfitter_cfg.c **** 
 433:Generated_Source\PSoC5/cyfitter_cfg.c **** 	{
 434:Generated_Source\PSoC5/cyfitter_cfg.c **** 
 435:Generated_Source\PSoC5/cyfitter_cfg.c **** 		CYPACKED typedef struct {
 436:Generated_Source\PSoC5/cyfitter_cfg.c **** 			void CYFAR *address;
 437:Generated_Source\PSoC5/cyfitter_cfg.c **** 			uint16 size;
 438:Generated_Source\PSoC5/cyfitter_cfg.c **** 		} CYPACKED_ATTR cfg_memset_t;
 439:Generated_Source\PSoC5/cyfitter_cfg.c **** 
 440:Generated_Source\PSoC5/cyfitter_cfg.c **** 
 441:Generated_Source\PSoC5/cyfitter_cfg.c **** 		CYPACKED typedef struct {
 442:Generated_Source\PSoC5/cyfitter_cfg.c **** 			void CYFAR *dest;
 443:Generated_Source\PSoC5/cyfitter_cfg.c **** 			const void CYFAR *src;
 444:Generated_Source\PSoC5/cyfitter_cfg.c **** 			uint16 size;
 445:Generated_Source\PSoC5/cyfitter_cfg.c **** 		} CYPACKED_ATTR cfg_memcpy_t;
 446:Generated_Source\PSoC5/cyfitter_cfg.c **** 
 447:Generated_Source\PSoC5/cyfitter_cfg.c **** 		static const cfg_memset_t CYCODE cfg_memset_list[] = {
 448:Generated_Source\PSoC5/cyfitter_cfg.c **** 			/* address, size */
 449:Generated_Source\PSoC5/cyfitter_cfg.c **** 			{(void CYFAR *)(CYREG_PRT4_DR), 48u},
 450:Generated_Source\PSoC5/cyfitter_cfg.c **** 			{(void CYFAR *)(CYREG_PRT12_DR), 16u},
 451:Generated_Source\PSoC5/cyfitter_cfg.c **** 			{(void CYFAR *)(CYREG_PRT15_DR), 16u},
 452:Generated_Source\PSoC5/cyfitter_cfg.c **** 			{(void CYFAR *)(CYDEV_UCFG_B0_P0_U0_BASE), 4096u},
 453:Generated_Source\PSoC5/cyfitter_cfg.c **** 			{(void CYFAR *)(CYDEV_UCFG_B1_P2_U0_BASE), 512u},
 454:Generated_Source\PSoC5/cyfitter_cfg.c **** 			{(void CYFAR *)(CYDEV_UCFG_B1_P3_U1_BASE), 1408u},
 455:Generated_Source\PSoC5/cyfitter_cfg.c **** 			{(void CYFAR *)(CYDEV_UCFG_DSI0_BASE), 2560u},
 456:Generated_Source\PSoC5/cyfitter_cfg.c **** 			{(void CYFAR *)(CYDEV_UCFG_DSI12_BASE), 512u},
 457:Generated_Source\PSoC5/cyfitter_cfg.c **** 			{(void CYFAR *)(CYREG_BCTL0_MDCLK_EN), 32u},
 458:Generated_Source\PSoC5/cyfitter_cfg.c **** 		};
 459:Generated_Source\PSoC5/cyfitter_cfg.c **** 
 460:Generated_Source\PSoC5/cyfitter_cfg.c **** 		static const cfg_memcpy_t CYCODE cfg_memcpy_list [] = {
 461:Generated_Source\PSoC5/cyfitter_cfg.c **** 			/* dest, src, size */
 462:Generated_Source\PSoC5/cyfitter_cfg.c **** 			{(void CYFAR *)(CYDEV_UCFG_B1_P3_U0_BASE), BS_UDB_1_1_1_CONFIG_VAL, 128u},
 463:Generated_Source\PSoC5/cyfitter_cfg.c **** 		};
 464:Generated_Source\PSoC5/cyfitter_cfg.c **** 
 465:Generated_Source\PSoC5/cyfitter_cfg.c **** 		uint8 CYDATA i;
 466:Generated_Source\PSoC5/cyfitter_cfg.c **** 
 467:Generated_Source\PSoC5/cyfitter_cfg.c **** 		/* Zero out critical memory blocks before beginning configuration */
 468:Generated_Source\PSoC5/cyfitter_cfg.c **** 		for (i = 0u; i < (sizeof(cfg_memset_list)/sizeof(cfg_memset_list[0])); i++)
 514              		.loc 1 468 0
 515 000e 0024     		movs	r4, #0
 516 0010 0BE0     		b	.L38
 517              	.LVL37:
 518              	.L39:
 519              	.LBB4:
 469:Generated_Source\PSoC5/cyfitter_cfg.c **** 		{
 470:Generated_Source\PSoC5/cyfitter_cfg.c **** 			const cfg_memset_t CYCODE * CYDATA ms = &cfg_memset_list[i];
ARM GAS  C:\Users\dmarsch\AppData\Local\Temp\ccw3olZs.s 			page 19


 471:Generated_Source\PSoC5/cyfitter_cfg.c **** 			CYMEMZERO(ms->address, (size_t)(uint32)(ms->size));
 520              		.loc 1 471 0 discriminator 3
 521 0012 3448     		ldr	r0, .L43+4
 522 0014 6300     		lsls	r3, r4, #1
 523 0016 1A19     		adds	r2, r3, r4
 524 0018 5100     		lsls	r1, r2, #1
 525 001a 0144     		add	r1, r1, r0
 526 001c 0A46     		mov	r2, r1
 527 001e 098A     		ldrh	r1, [r1, #16]
 528 0020 D068     		ldr	r0, [r2, #12]	@ unaligned
 529 0022 FFF7FEFF 		bl	CYMEMZERO
 530              	.LVL38:
 531              	.LBE4:
 468:Generated_Source\PSoC5/cyfitter_cfg.c **** 		{
 532              		.loc 1 468 0 discriminator 3
 533 0026 0134     		adds	r4, r4, #1
 534              	.LVL39:
 535 0028 E4B2     		uxtb	r4, r4
 536              	.LVL40:
 537              	.L38:
 468:Generated_Source\PSoC5/cyfitter_cfg.c **** 		{
 538              		.loc 1 468 0 is_stmt 0 discriminator 1
 539 002a 082C     		cmp	r4, #8
 540 002c F1D9     		bls	.L39
 541 002e 0024     		movs	r4, #0
 542              	.LVL41:
 543 0030 0BE0     		b	.L40
 544              	.LVL42:
 545              	.L41:
 546              	.LBB5:
 472:Generated_Source\PSoC5/cyfitter_cfg.c **** 		}
 473:Generated_Source\PSoC5/cyfitter_cfg.c **** 
 474:Generated_Source\PSoC5/cyfitter_cfg.c **** 		/* Copy device configuration data into registers */
 475:Generated_Source\PSoC5/cyfitter_cfg.c **** 		for (i = 0u; i < (sizeof(cfg_memcpy_list)/sizeof(cfg_memcpy_list[0])); i++)
 476:Generated_Source\PSoC5/cyfitter_cfg.c **** 		{
 477:Generated_Source\PSoC5/cyfitter_cfg.c **** 			const cfg_memcpy_t CYCODE * CYDATA mc = &cfg_memcpy_list[i];
 478:Generated_Source\PSoC5/cyfitter_cfg.c **** 			void * CYDATA destPtr = mc->dest;
 547              		.loc 1 478 0 is_stmt 1 discriminator 3
 548 0032 2C49     		ldr	r1, .L43+4
 549 0034 A300     		lsls	r3, r4, #2
 550 0036 1819     		adds	r0, r3, r4
 551 0038 4200     		lsls	r2, r0, #1
 552 003a 8818     		adds	r0, r1, r2
 553              	.LVL43:
 479:Generated_Source\PSoC5/cyfitter_cfg.c **** 			const void * CYDATA srcPtr = mc->src;
 480:Generated_Source\PSoC5/cyfitter_cfg.c **** 			uint16 CYDATA numBytes = mc->size;
 481:Generated_Source\PSoC5/cyfitter_cfg.c **** 			CYCONFIGCPY(destPtr, srcPtr, numBytes);
 554              		.loc 1 481 0 discriminator 3
 555 003c 8022     		movs	r2, #128
 556 003e 816C     		ldr	r1, [r0, #72]	@ unaligned
 557              	.LVL44:
 558 0040 406C     		ldr	r0, [r0, #68]	@ unaligned
 559              	.LVL45:
 560 0042 FFF7FEFF 		bl	CYCONFIGCPY
 561              	.LVL46:
 562              	.LBE5:
 475:Generated_Source\PSoC5/cyfitter_cfg.c **** 		{
ARM GAS  C:\Users\dmarsch\AppData\Local\Temp\ccw3olZs.s 			page 20


 563              		.loc 1 475 0 discriminator 3
 564 0046 0134     		adds	r4, r4, #1
 565              	.LVL47:
 566 0048 E4B2     		uxtb	r4, r4
 567              	.LVL48:
 568              	.L40:
 475:Generated_Source\PSoC5/cyfitter_cfg.c **** 		{
 569              		.loc 1 475 0 is_stmt 0 discriminator 1
 570 004a 002C     		cmp	r4, #0
 571 004c F1D0     		beq	.L41
 482:Generated_Source\PSoC5/cyfitter_cfg.c **** 		}
 483:Generated_Source\PSoC5/cyfitter_cfg.c **** 
 484:Generated_Source\PSoC5/cyfitter_cfg.c **** 		cfg_write_bytes32(cy_cfg_addr_table, cy_cfg_data_table);
 572              		.loc 1 484 0 is_stmt 1
 573 004e 2649     		ldr	r1, .L43+8
 574 0050 4FF09040 		mov	r0, #1207959552
 575 0054 FFF7FEFF 		bl	cfg_write_bytes32
 576              	.LVL49:
 485:Generated_Source\PSoC5/cyfitter_cfg.c **** 
 486:Generated_Source\PSoC5/cyfitter_cfg.c **** 		/* Perform normal device configuration. Order is not critical for these items. */
 487:Generated_Source\PSoC5/cyfitter_cfg.c **** 		CY_SET_XTND_REG8((void CYFAR *)(CYREG_DSM0_CR3), 0x0Au);
 577              		.loc 1 487 0
 578 0058 0A25     		movs	r5, #10
 579 005a 244B     		ldr	r3, .L43+12
 580 005c 1D70     		strb	r5, [r3]
 488:Generated_Source\PSoC5/cyfitter_cfg.c **** 
 489:Generated_Source\PSoC5/cyfitter_cfg.c **** 		/* Enable digital routing */
 490:Generated_Source\PSoC5/cyfitter_cfg.c **** 		CY_SET_XTND_REG8((void CYFAR *)CYREG_BCTL0_BANK_CTL, CY_GET_XTND_REG8((void CYFAR *)CYREG_BCTL0_B
 581              		.loc 1 490 0
 582 005e 244A     		ldr	r2, .L43+16
 583 0060 1378     		ldrb	r3, [r2]	@ zero_extendqisi2
 584 0062 43F00203 		orr	r3, r3, #2
 585 0066 1370     		strb	r3, [r2]
 491:Generated_Source\PSoC5/cyfitter_cfg.c **** 		CY_SET_XTND_REG8((void CYFAR *)CYREG_BCTL1_BANK_CTL, CY_GET_XTND_REG8((void CYFAR *)CYREG_BCTL1_B
 586              		.loc 1 491 0
 587 0068 1032     		adds	r2, r2, #16
 588 006a 1378     		ldrb	r3, [r2]	@ zero_extendqisi2
 589 006c 43F00203 		orr	r3, r3, #2
 590 0070 1370     		strb	r3, [r2]
 492:Generated_Source\PSoC5/cyfitter_cfg.c **** 
 493:Generated_Source\PSoC5/cyfitter_cfg.c **** 		/* Enable UDB array */
 494:Generated_Source\PSoC5/cyfitter_cfg.c **** 		CY_SET_XTND_REG8((void CYFAR *)CYREG_PM_ACT_CFG0, CY_GET_XTND_REG8((void CYFAR *)CYREG_PM_ACT_CFG
 591              		.loc 1 494 0
 592 0072 204C     		ldr	r4, .L43+20
 593              	.LVL50:
 594 0074 2378     		ldrb	r3, [r4]	@ zero_extendqisi2
 595 0076 43F04003 		orr	r3, r3, #64
 596 007a 2370     		strb	r3, [r4]
 495:Generated_Source\PSoC5/cyfitter_cfg.c **** 		CY_SET_XTND_REG8((void CYFAR *)CYREG_PM_AVAIL_CR2, CY_GET_XTND_REG8((void CYFAR *)CYREG_PM_AVAIL_
 597              		.loc 1 495 0
 598 007c A2F58632 		sub	r2, r2, #68608
 599 0080 513A     		subs	r2, r2, #81
 600 0082 1378     		ldrb	r3, [r2]	@ zero_extendqisi2
 601 0084 43F01003 		orr	r3, r3, #16
 602 0088 1370     		strb	r3, [r2]
 603              	.LBE3:
 496:Generated_Source\PSoC5/cyfitter_cfg.c **** 	}
ARM GAS  C:\Users\dmarsch\AppData\Local\Temp\ccw3olZs.s 			page 21


 497:Generated_Source\PSoC5/cyfitter_cfg.c **** 
 498:Generated_Source\PSoC5/cyfitter_cfg.c **** 
 499:Generated_Source\PSoC5/cyfitter_cfg.c **** 	/* Perform second pass device configuration. These items must be configured in specific order afte
 500:Generated_Source\PSoC5/cyfitter_cfg.c **** 	CYCONFIGCPY((void CYFAR *)(CYREG_PRT0_DM0), (const void CYFAR *)(BS_IOPINS0_0_VAL), 8u);
 604              		.loc 1 500 0
 605 008a 0822     		movs	r2, #8
 606 008c 1A49     		ldr	r1, .L43+24
 607 008e 1B48     		ldr	r0, .L43+28
 608 0090 FFF7FEFF 		bl	CYCONFIGCPY
 609              	.LVL51:
 501:Generated_Source\PSoC5/cyfitter_cfg.c **** 	CYCONFIGCPY((void CYFAR *)(CYREG_PRT1_DM0), (const void CYFAR *)(BS_IOPINS0_1_VAL), 8u);
 610              		.loc 1 501 0
 611 0094 0822     		movs	r2, #8
 612 0096 1A49     		ldr	r1, .L43+32
 613 0098 1A48     		ldr	r0, .L43+36
 614 009a FFF7FEFF 		bl	CYCONFIGCPY
 615              	.LVL52:
 502:Generated_Source\PSoC5/cyfitter_cfg.c **** 	CYCONFIGCPY((void CYFAR *)(CYREG_PRT2_DM0), (const void CYFAR *)(BS_IOPINS0_2_VAL), 8u);
 616              		.loc 1 502 0
 617 009e 0822     		movs	r2, #8
 618 00a0 1949     		ldr	r1, .L43+40
 619 00a2 1A48     		ldr	r0, .L43+44
 620 00a4 FFF7FEFF 		bl	CYCONFIGCPY
 621              	.LVL53:
 503:Generated_Source\PSoC5/cyfitter_cfg.c **** 	CYCONFIGCPY((void CYFAR *)(CYREG_PRT3_DR), (const void CYFAR *)(BS_IOPINS0_3_VAL), 10u);
 622              		.loc 1 503 0
 623 00a8 2A46     		mov	r2, r5
 624 00aa 1949     		ldr	r1, .L43+48
 625 00ac 1948     		ldr	r0, .L43+52
 626 00ae FFF7FEFF 		bl	CYCONFIGCPY
 627              	.LVL54:
 504:Generated_Source\PSoC5/cyfitter_cfg.c **** 	/* Switch Boost to the precision bandgap reference from its internal reference */
 505:Generated_Source\PSoC5/cyfitter_cfg.c **** 	CY_SET_REG8((void CYXDATA *)CYREG_BOOST_CR2, (CY_GET_REG8((void CYXDATA *)CYREG_BOOST_CR2) | 0x08u
 628              		.loc 1 505 0
 629 00b2 194A     		ldr	r2, .L43+56
 630 00b4 1378     		ldrb	r3, [r2]	@ zero_extendqisi2
 631 00b6 43F00803 		orr	r3, r3, #8
 632 00ba 1370     		strb	r3, [r2]
 506:Generated_Source\PSoC5/cyfitter_cfg.c **** 
 507:Generated_Source\PSoC5/cyfitter_cfg.c **** 	/* Set Flash Cycles based on max possible frequency in case a glitch occurs during ClockSetup(). *
 508:Generated_Source\PSoC5/cyfitter_cfg.c **** 	CY_SET_XTND_REG8((void CYFAR *)(CYREG_CACHE_CC_CTL), (((CYDEV_INSTRUCT_CACHE_ENABLED) != 0) ? 0x61
 633              		.loc 1 508 0
 634 00bc 174D     		ldr	r5, .L43+60
 635 00be 6123     		movs	r3, #97
 636 00c0 2B70     		strb	r3, [r5]
 509:Generated_Source\PSoC5/cyfitter_cfg.c **** 	/* Setup clocks based on selections from Clock DWR */
 510:Generated_Source\PSoC5/cyfitter_cfg.c **** 	ClockSetup();
 637              		.loc 1 510 0
 638 00c2 FFF7FEFF 		bl	ClockSetup
 639              	.LVL55:
 511:Generated_Source\PSoC5/cyfitter_cfg.c **** 	/* Set Flash Cycles based on newly configured 24.00MHz Bus Clock. */
 512:Generated_Source\PSoC5/cyfitter_cfg.c **** 	CY_SET_XTND_REG8((void CYFAR *)(CYREG_CACHE_CC_CTL), (((CYDEV_INSTRUCT_CACHE_ENABLED) != 0) ? 0x81
 640              		.loc 1 512 0
 641 00c6 8123     		movs	r3, #129
 642 00c8 2B70     		strb	r3, [r5]
 513:Generated_Source\PSoC5/cyfitter_cfg.c **** 	CY_SET_XTND_REG8((void CYFAR *)(CYREG_PANTHER_WAITPIPE), 0x01u);
 643              		.loc 1 513 0
ARM GAS  C:\Users\dmarsch\AppData\Local\Temp\ccw3olZs.s 			page 22


 644 00ca 0122     		movs	r2, #1
 645 00cc 144B     		ldr	r3, .L43+64
 646 00ce 1A70     		strb	r2, [r3]
 514:Generated_Source\PSoC5/cyfitter_cfg.c **** 
 515:Generated_Source\PSoC5/cyfitter_cfg.c **** 	/* Perform basic analog initialization to defaults */
 516:Generated_Source\PSoC5/cyfitter_cfg.c **** 	AnalogSetDefault();
 647              		.loc 1 516 0
 648 00d0 FFF7FEFF 		bl	AnalogSetDefault
 649              	.LVL56:
 517:Generated_Source\PSoC5/cyfitter_cfg.c **** 
 518:Generated_Source\PSoC5/cyfitter_cfg.c **** 	/* Configure alternate active mode */
 519:Generated_Source\PSoC5/cyfitter_cfg.c **** 	CYCONFIGCPY((void CYFAR *)CYDEV_PM_STBY_BASE, (const void CYFAR *)CYDEV_PM_ACT_BASE, 14u);
 650              		.loc 1 519 0
 651 00d4 0E22     		movs	r2, #14
 652 00d6 2146     		mov	r1, r4
 653 00d8 1248     		ldr	r0, .L43+68
 654 00da FFF7FEFF 		bl	CYCONFIGCPY
 655              	.LVL57:
 656 00de 38BD     		pop	{r3, r4, r5, pc}
 657              	.L44:
 658              		.align	2
 659              	.L43:
 660 00e0 E8460040 		.word	1073759976
 661 00e4 00000000 		.word	.LANCHOR0
 662 00e8 5C000048 		.word	1207959644
 663 00ec 83580040 		.word	1073764483
 664 00f0 03500140 		.word	1073827843
 665 00f4 A0430040 		.word	1073759136
 666 00f8 A8020048 		.word	1207960232
 667 00fc 02510040 		.word	1073762562
 668 0100 B0020048 		.word	1207960240
 669 0104 12510040 		.word	1073762578
 670 0108 B8020048 		.word	1207960248
 671 010c 22510040 		.word	1073762594
 672 0110 C0020048 		.word	1207960256
 673 0114 30510040 		.word	1073762608
 674 0118 22430040 		.word	1073759010
 675 011c 00480040 		.word	1073760256
 676 0120 04000840 		.word	1074266116
 677 0124 B0430040 		.word	1073759152
 678              		.cfi_endproc
 679              	.LFE10:
 680              		.size	cyfitter_cfg, .-cyfitter_cfg
 681              		.global	ADC_AMux__maskTable
 682              		.global	ADC_AMux__addrTable
 683              		.section	.rodata
 684              		.align	2
 685              		.set	.LANCHOR0,. + 0
 686              		.type	ADC_AMux__addrTable, %object
 687              		.size	ADC_AMux__addrTable, 8
 688              	ADC_AMux__addrTable:
 689 0000 035B0040 		.word	1073765123
 690 0004 035B0040 		.word	1073765123
 691              		.type	ADC_AMux__maskTable, %object
 692              		.size	ADC_AMux__maskTable, 2
 693              	ADC_AMux__maskTable:
 694 0008 40       		.byte	64
ARM GAS  C:\Users\dmarsch\AppData\Local\Temp\ccw3olZs.s 			page 23


 695 0009 20       		.byte	32
 696 000a 0000     		.space	2
 697              		.type	cfg_memset_list.5032, %object
 698              		.size	cfg_memset_list.5032, 54
 699              	cfg_memset_list.5032:
 700 000c 40510040 		.word	1073762624
 701 0010 3000     		.short	48
 702 0012 C0510040 		.4byte	1073762752
 703 0016 1000     		.short	16
 704 0018 F0510040 		.word	1073762800
 705 001c 1000     		.short	16
 706 001e 00000140 		.4byte	1073807360
 707 0022 0010     		.short	4096
 708 0024 00140140 		.word	1073812480
 709 0028 0002     		.short	512
 710 002a 80160140 		.4byte	1073813120
 711 002e 8005     		.short	1408
 712 0030 00400140 		.word	1073823744
 713 0034 000A     		.short	2560
 714 0036 004C0140 		.4byte	1073826816
 715 003a 0002     		.short	512
 716 003c 00500140 		.word	1073827840
 717 0040 2000     		.short	32
 718 0042 0000     		.space	2
 719              		.type	cfg_memcpy_list.5033, %object
 720              		.size	cfg_memcpy_list.5033, 10
 721              	cfg_memcpy_list.5033:
 722 0044 00160140 		.word	1073812992
 723 0048 28020048 		.word	1207960104
 724 004c 8000     		.short	128
 725              		.text
 726              	.Letext0:
 727              		.file 2 "c:\\program files (x86)\\cypress\\psoc creator\\4.2\\psoc creator\\import\\gnu\\arm\\5.4.
 728              		.file 3 "Generated_Source\\PSoC5\\cytypes.h"
 729              		.file 4 "Generated_Source\\PSoC5\\CyLib.h"
